:020000040800F2
:100000000010002079030008A1030008A3030008E2
:1000100000000000000000000000000000000000E0
:10002000000000000000000000000000A503000820
:100030000000000000000000A7030008A90300085A
:10004000AD030008AF030008B1030008B3030008C4
:10005000B5030008B7030008B9030008BB03000894
:10006000AB030008BD030008DD0C0008C103000855
:10007000C3030008C5030008C7030008AB0300085A
:10008000C9030008CB030008AB030008CD03000838
:10009000CF030008D1030008D3030008D5030008EC
:1000A000D7030008D9030008DB030008E5070008B0
:1000B000DF030008E1030008AB030008E3030008C6
:1000C0001A4B1A68194B01210A431A60174B5A68D8
:1000D000164B17490A405A60144B1A68134B1549BE
:1000E0000A401A60114B1A68104B13490A401A60F3
:1000F0000E4B5A680D4B11490A405A600B4BDA6A95
:100100000A4B0F218A43DA62084B1A6B074B0C49E2
:100110000A401A63054B5A6B044B01218A435A6308
:10012000024B00229A60C0467047C0460010024051
:100130000CB8FF08FFFFF6FEFFFFFBFFFFFFC0FF4D
:10014000ECFEFFFF00B585B000230393002302936C
:1001500000230193002300932D4B5B680C22134076
:100160000393039B042B07D0082B09D0002B3AD113
:10017000284B294A1A603AE0264B274A1A6036E093
:10018000234B5A68F0239B0313400293204B5A6879
:1001900080235B0213400193029B9B0C023302936A
:1001A0001B4BDB6A0F22134001330093019A80231B
:1001B0005B029A420AD10099174800F01BFE030027
:1001C0001A00029B5A43134B1A6010E002990A006E
:1001D0005201521A93019B1ADB005B181B021A0092
:1001E0000C4B1A6003E00B4B0B4A1A60C046084BDD
:1001F0005B681B090F221340084AD35C0393054B2D
:100200001A68039BDA40034B1A60C04605B000BD74
:10021000001002400000002000127A00E4030008F1
:10022000354936480A1A02D0072291438D4634498F
:1002300034480A1A06D00722914381F30988022222
:1002400082F3148830483149314A00F043F831488C
:100250003149324A00F03EF831483249324A00F022
:1002600039F832483249334A00F034F832483349D9
:10027000334A00F02FF833483349344A00F02AF863
:1002800033483449344A00F025F8344834490022D0
:1002900000F02BF833483449002200F026F83348A8
:1002A0003349091A082903DB002202600430016087
:1002B0001F482049884205D00268043003B49047A3
:1002C00003BCF7E700208646EC4600200021294ABF
:1002D0009047FEE7884207D0521A05D003780130D4
:1002E0000B700131013AF9D17047884202D0027097
:1002F0000130FAE77047000000100020000F0020D6
:100300000010002000100020780E000800000020DF
:1003100044000020F4030008F4030008320E000833
:10032000780E00080000002000000020340E0008B5
:10033000340E0008340E0008340E0008340E000895
:10034000340E0008340E0008340E0008780E000841
:10035000BC0E0008C4010020C4010020440000209D
:10036000C4010020C4010020C4010020C4010020F9
:10037000C402002035050008044805498843854625
:100380000448804704480549016049E700100020FF
:1003900007000000C100000808ED00E000000008B0
:1003A000FEE7FEE7FEE7FEE7FEE7FEE7FEE7FEE725
:1003B000FEE7FEE7FEE7FEE7FEE7FEE7FEE7FEE715
:1003C000FEE7FEE7FEE7FEE7FEE7FEE7FEE7FEE705
:1003D000FEE7FEE7FEE7FEE7FEE7FEE7FEE7FEE7F5
:0403E000FEE7FEE74F
:1003E40000000000000000000102030406070809E1
:1003F40082B001900A006B4603331A706B460333D4
:100404001B78002B06D0019B9B881A000123934084
:100414001A0006E0019B9B881A00012393401B04E9
:100424001A00019B1B689A61C04602B0704782B0F3
:100434000190019B1B681A68019B9B885B0001214A
:1004440099400B001900019B1B680A431A60019B29
:100454001B689A68019B9B885B00032199400B00F1
:100464001900019B1B680A439A60C04602B070479A
:1004740082B00190019B1B681A68019B9B885B00FA
:10048400032199400B00DB431900019B1B680A40C0
:100494001A60C04602B0704782B00190019B1B688D
:1004A4001B69019A9288110001228A4013405A1E46
:1004B4009341DBB29BB2180002B0704782B00200D5
:1004C4006B4606331A8001AB0A1C1A80C04602B080
:1004D40070470000154B1A68144B802149020A43E7
:1004E4001A60C046114B1A6880239B021340F9D04E
:1004F4000E4B5A680D4B882149030A435A600B4B33
:100504001A680A4B802149040A431A60C046074B03
:100514001A6880239B041340F9D0044B5A68034B98
:1005240002210A435A60C0467047C0460010024088
:1005340010B582B0FFF7CEFFFFF702FE504B190053
:100544001A2000F0D5FB4F4B5A694E4BC021C9020B
:100554000A435A616B46073300221A700FE06B4658
:1005640007331B78DA00484BD3181800FFF75FFFF6
:100574006B4607331A786B46073301321A706B46A1
:1005840007331B78052BEAD96B46073300221A7010
:100594000FE06B4607331B78DA003C4BD318180086
:1005A400FFF766FF6B4607331A786B460733013251
:1005B4001A706B4607331B78012BEAD9344B354A42
:1005C4001A60334B344A1A60314B03225A60304B61
:1005D400324A9A60C0462E4BDB68002BFBD12C4B71
:1005E4002F4A1A602A4B2E4A1A606B4607330022A0
:1005F4001A7018E06B4607331B78DA00224BD018C8
:100604006B4607331B781E4A5B00D31802331B88E2
:10061400DBB21900FFF7ECFE6B4607331A786B4622
:10062400073301321A706B4607331B78052BE1D967
:100634006B46073300221A701BE06B4607331B78A6
:10064400DA00124BD2186B4607331C781000FFF700
:1006540023FF030019000A4A231D5B00D318063345
:100664000A1C1A806B4607331A786B46073301322B
:100674001A706B4607331B78012BDED9B2E7C046EC
:100684004400002000100240040000203400002038
:1006940000300040CCCC000055550000FF0F000096
:1006A400AAAA000082B002006B4607331A706B4698
:1006B40007331B781A001F231A40044B0121914071
:1006C4000A001A60C04602B07047C04600E100E06C
:1006D40084B001900A006B4603331A7003AB012205
:1006E40052421A802DE0019B5A1C01921B7899B248
:1006F40003AB03AA12884A401A800E236B440022DB
:100704001A8019E003AB1B880122134008D003AB05
:100714001B885B089AB203AB11494A401A8004E073
:1007240003AB03AA128852081A800E236B441A885A
:100734000E236B4401321A800E236B441B88072B53
:10074400E0D96B4603331B786A460332591E117095
:10075400002BC8D103AB1B88180004B07047C046F7
:1007640001A0FFFF84B001900A006B4602331A8097
:100774000E236B4400221A8026E00E236B441B8850
:10078400019AD2180D236B4412781A700E236B440D
:100794001B880133019AD2180E236B441B880199DC
:1007A400CB1812781A700E236B441B880133019AFC
:1007B400D3180D226A4412781A700E236B440E2249
:1007C4006A44128802321A800E236B441A886B46DC
:1007D40002331B88013B9A42CFDBC04604B070470A
:1007E40010B584B0D14BDA6980231B01134000D1CA
:1007F40025E2CE4B802212011A62CD4B1B78002BCE
:1008040000D119E2CA4B1B78023BDAB20A246C44C9
:10081400C84B11001800FFF75BFF030023800A2375
:100824006B441A88C24B1B78023BC249CB5C18004C
:10083400BF4B1B78013BBF49CB5C1B0203439A426D
:1008440000D0F9E19023DB0501229A61B94B1A78B3
:10085400B94B1A70B74B5A78B74B5A70B54B9B7853
:100864001B02B44AD27813439BB202AADB1813804A
:10087400B04B5B78102B00D9A7E19A00AF4BD3188B
:100884001B689F4602AB02AA128852081A8002AB68
:100894001B88DAB26B46073307210A401A7002AB91
:1008A40002AA1288D2081A80A24B1B791B021AB220
:1008B400A04B5B791BB213431AB203AB1A8003AB90
:1008C4001B88072213409BB2002B05D103AB03AA5C
:1008D4001288D2081A8006E003AB1B88DB089AB2A0
:1008E40003AB01321A8003AB1B88DAB2924B9A70C5
:1008F4000F236B4400221A7034E0914B1B6802AA48
:1009040011880F226A4412788A189B181B781A00DF
:100914006B4607331B781A4113005AB2884B196887
:1009240002AB18880F236B441B78C3180133CB1810
:100934001B7818006B4607331B780821CB1A9840A4
:1009440003005BB213435AB20F236B441B78033387
:10095400D1B2794AD1540F236B441A780F236B44D4
:1009640001321A700F236B441B789BB203AA1288BE
:100974009A42C2D803AB1B88DBB20333DAB20A242F
:100984006C446D4B11001800FFF7A2FE0300238096
:1009940003AB1B8803330A226A441288D1B2664A25
:1009A400D1540A236B441B881B0A9AB203AB1B88DD
:1009B4000433D1B2604AD1542DE15E4B5B799BB2D2
:1009C40003AADB18138003AB1B88DAB25A4B9A7064
:1009D4005B4B1A6802AB1B88D11803AB1A88594BBE
:1009E400180000F019FA03AB1A88564B11001800CE
:1009F400FFF7B8FE03AB1B88DBB20333DAB20A2479
:100A04006C444D4B11001800FFF762FE0300238075
:100A140003AB1B8803330A226A441288D1B2464AC4
:100A2400D1540A236B441B881B0A9AB203AB1B885C
:100A34000433D1B2404AD154EDE002AB02AA128889
:100A440052081A8002AB1B88DAB26B4607330721BF
:100A54000A401A7002AB02AA1288D2081A80354BD7
:100A64001B79002B19D1364B1A6802AB1B88D3189B
:100A74001B785BB26A4607321278012191400A0062
:100A840052B2D24352B2134059B22D4B1A6802AB40
:100A94001B88D318CAB21A7016E0294B1A6802AB25
:100AA4001B88D3181B785AB26B4607331B78012175
:100AB40099400B005BB2134359B2214B1A6802AB45
:100AC4001B88D318CAB21A7003AB03221A801949BF
:100AD400194B0822180000F09FF902AB1B88012172
:100AE4001800FFF7EBFC96E0154B1A6802AB1B8865
:100AF400D318104A52791A70114B1A6802AB1B882A
:100B04000133D3180B4A12791A7003AB03221A80EB
:100B14000849094B0822180000F07EF902AB1B8833
:100B240002211800FFF7CAFC75E0C04600380140F6
:100B3400C00000205C000020C4000020340E000827
:100B440058000020C70000205B4B5B799BB203AACE
:100B5400DB18138003AB1A88584B11001800FFF7F9
:100B640001FE574B1A6802AB1B88D01803AB1A88D6
:100B7400524B190000F050F94F49524B062218000D
:100B840000F04AF90A246C444E4B06211800FFF782
:100B94009FFD030023800A236B441B88DAB2494B70
:100BA4009A710A236B441B881B0A9BB2DAB2454B29
:100BB400DA7103AB1A8802AB1B8811001800FFF727
:100BC4007DFC03AB03221A8025E03E4B5B78802238
:100BD40052421343DAB23B4B5A703A4B01229A7099
:100BE4000A246C44374B03211800FFF771FD0300FE
:100BF40023800A236B441B88DAB2324BDA700A234F
:100C04006B441B881B0A9BB2DAB22E4B1A7103ABDE
:100C140000221A80C0462C4B1A682B4B01218A43B0
:100C24001A6003AB1B885A1D274B5A60264B1A685F
:100C3400254B01210A431A60244B00221A70244BCD
:100C4400DB692022134033D0214B9B8C9AB26B4634
:100C540006331A701D4B1B78002B13D11D4B1B78C8
:100C64006A46063212789A4203D0194B04229A61DA
:100C74001EE0114B6A46063212781A70134B012299
:100C84001A7015E0114B1B7819000B4B6A4606329B
:100C940012785A540D4B1B78622B06D80B4B1B78D9
:100CA4000133DAB2094B1A7002E0084B00221A70C1
:100CB400C04604B010BDC0465C00002063000020A4
:100CC40058000020C40000201C000240C000002086
:100CD4000038014056000020044B20225A60902323
:100CE400DB05802252029A61C04670470000024030
:100CF40000B583B0020000916B4607331A702E4B87
:100D04006A46073212781A702C4B00221A702C4B48
:100D1400009A1A602B4B5A692A4B2B490A435A6191
:100D2400284B9A69274B8021C9010A439A61902371
:100D3400DB051A689023DB0501210A431A6090231E
:100D4400DB051A689023DB05A8210A431A60902367
:100D5400DB05012252429A609023DB051A6A902334
:100D6400DB051A490A431A62194B1A4A1A60184BCE
:100D7400194A5A60164BA122D2019A60144B174AA1
:100D8400DA60134B1E225A61114B1A68104B012171
:100D94000A431A60124B134ADA60114B124A9A60E2
:100DA4000F4B124A1A600A20FFF77CFC1B20FFF746
:100DB40079FCC04603B000BD56000020C0000020EE
:100DC4005800002000100240010002001011000031
:100DD400003801402C20FF070030800088130000F9
:100DE4001C000240C400002028380140923000005A
:100DF4000A000FD00300400800E052008242FCD9F0
:100E0400002000E05208934200D39B1A40418A42DA
:100E1400F8D17047002070478446002A05D00B782B
:0E0E2400037001300131013AF9D16046704788
:100E3400CE0B00088808000888080008BE090008CE
:100E4400BE0900083E0A0008EC0A0008CE0B0008A0
:100E5400CE0B0008CE0B0008CE0B0008CE0B00080A
:100E6400CE0B0008CE0B0008CE0B0008CE0B0008FA
:040E74004C0B00081B
:100E780000127A00000000480A0000000000004844
:100E880009000000000000480700000000000048BA
:100E980006000000000000480500000000000048AF
:100EA80004000000000000480000000000040048A2
:040EB8000100000035
:040000050800037973
:00000001FF
